{"abi":[{"type":"constructor","inputs":[{"name":"_nameWrapper","type":"address","internalType":"address"},{"name":"_defaultResolver","type":"address","internalType":"address"},{"name":"_parentNode","type":"bytes32","internalType":"bytes32"},{"name":"_defaultExpiry","type":"uint64","internalType":"uint64"}],"stateMutability":"nonpayable"},{"type":"function","name":"SUBNAME_FUSES","inputs":[],"outputs":[{"name":"","type":"uint32","internalType":"uint32"}],"stateMutability":"view"},{"type":"function","name":"defaultExpiry","inputs":[],"outputs":[{"name":"","type":"uint64","internalType":"uint64"}],"stateMutability":"view"},{"type":"function","name":"defaultResolver","inputs":[],"outputs":[{"name":"","type":"address","internalType":"address"}],"stateMutability":"view"},{"type":"function","name":"nameWrapper","inputs":[],"outputs":[{"name":"","type":"address","internalType":"contract INameWrapper"}],"stateMutability":"view"},{"type":"function","name":"owner","inputs":[],"outputs":[{"name":"","type":"address","internalType":"address"}],"stateMutability":"view"},{"type":"function","name":"parentNode","inputs":[],"outputs":[{"name":"","type":"bytes32","internalType":"bytes32"}],"stateMutability":"view"},{"type":"function","name":"register","inputs":[{"name":"label","type":"string","internalType":"string"}],"outputs":[{"name":"node","type":"bytes32","internalType":"bytes32"}],"stateMutability":"nonpayable"},{"type":"function","name":"registerFor","inputs":[{"name":"label","type":"string","internalType":"string"},{"name":"registrant","type":"address","internalType":"address"}],"outputs":[{"name":"node","type":"bytes32","internalType":"bytes32"}],"stateMutability":"nonpayable"},{"type":"function","name":"setDefaultExpiry","inputs":[{"name":"newExpiry","type":"uint64","internalType":"uint64"}],"outputs":[],"stateMutability":"nonpayable"},{"type":"function","name":"setOwner","inputs":[{"name":"newOwner","type":"address","internalType":"address"}],"outputs":[],"stateMutability":"nonpayable"},{"type":"event","name":"DefaultExpiryUpdated","inputs":[{"name":"previousExpiry","type":"uint64","indexed":false,"internalType":"uint64"},{"name":"newExpiry","type":"uint64","indexed":false,"internalType":"uint64"}],"anonymous":false},{"type":"event","name":"OwnerUpdated","inputs":[{"name":"previousOwner","type":"address","indexed":true,"internalType":"address"},{"name":"newOwner","type":"address","indexed":true,"internalType":"address"}],"anonymous":false},{"type":"event","name":"SubnameRegistered","inputs":[{"name":"label","type":"string","indexed":false,"internalType":"string"},{"name":"fullName","type":"string","indexed":false,"internalType":"string"},{"name":"owner","type":"address","indexed":true,"internalType":"address"}],"anonymous":false},{"type":"error","name":"LabelEmpty","inputs":[]},{"type":"error","name":"LabelInvalid","inputs":[]},{"type":"error","name":"OnlyOwner","inputs":[]}],"bytecode":{"object":"0x60e06040523480156200001157600080fd5b506040516200150938038062001509833981810160405281019062000037919062000204565b8373ffffffffffffffffffffffffffffffffffffffff1660808173ffffffffffffffffffffffffffffffffffffffff16815250508273ffffffffffffffffffffffffffffffffffffffff1660a08173ffffffffffffffffffffffffffffffffffffffff16815250508160c0818152505080600060146101000a81548167ffffffffffffffff021916908367ffffffffffffffff160217905550336000806101000a81548173ffffffffffffffffffffffffffffffffffffffff021916908373ffffffffffffffffffffffffffffffffffffffff1602179055505050505062000276565b600080fd5b600073ffffffffffffffffffffffffffffffffffffffff82169050919050565b60006200014c826200011f565b9050919050565b6200015e816200013f565b81146200016a57600080fd5b50565b6000815190506200017e8162000153565b92915050565b6000819050919050565b620001998162000184565b8114620001a557600080fd5b50565b600081519050620001b9816200018e565b92915050565b600067ffffffffffffffff82169050919050565b620001de81620001bf565b8114620001ea57600080fd5b50565b600081519050620001fe81620001d3565b92915050565b600080600080608085870312156200022157620002206200011a565b5b600062000231878288016200016d565b945050602062000244878288016200016d565b93505060406200025787828801620001a8565b92505060606200026a87828801620001ed565b91505092959194509250565b60805160a05160c051611239620002d0600039600081816105e90152818161080b015261094e0152600081816104460152818161060d015261082f0152600081816105ad0152818161072d01526107cf01526112396000f3fe608060405234801561001057600080fd5b506004361061009e5760003560e01c80638da5cb5b116100665780638da5cb5b1461013557806390e225ea14610153578063a8e5fbc014610183578063f2c298be146101a1578063f3068a00146101d15761009e565b806307ecb833146100a357806313af4035146100bf57806320ad89d1146100db578063828eab0e146100f95780638cfb308814610117575b600080fd5b6100bd60048036038101906100b89190610b73565b6101ef565b005b6100d960048036038101906100d49190610bfe565b6102f4565b005b6100e361043d565b6040516100f09190610c4a565b60405180910390f35b610101610444565b60405161010e9190610c74565b60405180910390f35b61011f610468565b60405161012c9190610c9e565b60405180910390f35b61013d610482565b60405161014a9190610c74565b60405180910390f35b61016d60048036038101906101689190610d1e565b6104a6565b60405161017a9190610d97565b60405180910390f35b61018b61072b565b6040516101989190610e11565b60405180910390f35b6101bb60048036038101906101b69190610e2c565b61074f565b6040516101c89190610d97565b60405180910390f35b6101d961094c565b6040516101e69190610d97565b60405180910390f35b60008054906101000a900473ffffffffffffffffffffffffffffffffffffffff1673ffffffffffffffffffffffffffffffffffffffff163373ffffffffffffffffffffffffffffffffffffffff1614610274576040517f5fc483c500000000000000000000000000000000000000000000000000000000815260040160405180910390fd5b60008060149054906101000a900467ffffffffffffffff16905081600060146101000a81548167ffffffffffffffff021916908367ffffffffffffffff1602179055507f85209b2d7510fe9b21bcb2c641a3e83d2c09787064ebe73021d1ea7fa542751881836040516102e8929190610e79565b60405180910390a15050565b60008054906101000a900473ffffffffffffffffffffffffffffffffffffffff1673ffffffffffffffffffffffffffffffffffffffff163373ffffffffffffffffffffffffffffffffffffffff1614610379576040517f5fc483c500000000000000000000000000000000000000000000000000000000815260040160405180910390fd5b60008060009054906101000a900473ffffffffffffffffffffffffffffffffffffffff169050816000806101000a81548173ffffffffffffffffffffffffffffffffffffffff021916908373ffffffffffffffffffffffffffffffffffffffff1602179055508173ffffffffffffffffffffffffffffffffffffffff168173ffffffffffffffffffffffffffffffffffffffff167f8292fce18fa69edf4db7b94ea2e58241df0ae57f97e0a6c9b29067028bf92d7660405160405180910390a35050565b6201000081565b7f000000000000000000000000000000000000000000000000000000000000000081565b600060149054906101000a900467ffffffffffffffff1681565b60008054906101000a900473ffffffffffffffffffffffffffffffffffffffff1681565b60008060009054906101000a900473ffffffffffffffffffffffffffffffffffffffff1673ffffffffffffffffffffffffffffffffffffffff163373ffffffffffffffffffffffffffffffffffffffff161461052e576040517f5fc483c500000000000000000000000000000000000000000000000000000000815260040160405180910390fd5b6000848490500361056b576040517fae703caf00000000000000000000000000000000000000000000000000000000815260040160405180910390fd5b6105758484610970565b6105ab576040517f65f3008c00000000000000000000000000000000000000000000000000000000815260040160405180910390fd5b7f000000000000000000000000000000000000000000000000000000000000000073ffffffffffffffffffffffffffffffffffffffff166324c1af447f00000000000000000000000000000000000000000000000000000000000000008686867f0000000000000000000000000000000000000000000000000000000000000000600062010000600060149054906101000a900467ffffffffffffffff166040518963ffffffff1660e01b815260040161066c989796959493929190610f3b565b6020604051808303816000875af115801561068b573d6000803e3d6000fd5b505050506040513d601f19601f820116820180604052508101906106af9190610fdf565b90508173ffffffffffffffffffffffffffffffffffffffff167f5ee2a41b094d8bfdc3025abdd3ef318240139efd414f13bffcfdad428ab9faca858587876040516020016106fe929190611088565b60405160208183030381529060405260405161071c9392919061111a565b60405180910390a29392505050565b7f000000000000000000000000000000000000000000000000000000000000000081565b600080838390500361078d576040517fae703caf00000000000000000000000000000000000000000000000000000000815260040160405180910390fd5b6107978383610970565b6107cd576040517f65f3008c00000000000000000000000000000000000000000000000000000000815260040160405180910390fd5b7f000000000000000000000000000000000000000000000000000000000000000073ffffffffffffffffffffffffffffffffffffffff166324c1af447f00000000000000000000000000000000000000000000000000000000000000008585337f0000000000000000000000000000000000000000000000000000000000000000600062010000600060149054906101000a900467ffffffffffffffff166040518963ffffffff1660e01b815260040161088e989796959493929190610f3b565b6020604051808303816000875af11580156108ad573d6000803e3d6000fd5b505050506040513d601f19601f820116820180604052508101906108d19190610fdf565b90503373ffffffffffffffffffffffffffffffffffffffff167f5ee2a41b094d8bfdc3025abdd3ef318240139efd414f13bffcfdad428ab9faca84848686604051602001610920929190611088565b60405160208183030381529060405260405161093e9392919061111a565b60405180910390a292915050565b7f000000000000000000000000000000000000000000000000000000000000000081565b60008083838080601f016020809104026020016040519081016040528093929190818152602001838380828437600081840152601f19601f8201169050808301925050505050505090506040815111156109ce576000915050610b23565b60005b8151811015610b1c5760008282815181106109ef576109ee611153565b5b602001015160f81c60f81b9050606160f81b817effffffffffffffffffffffffffffffffffffffffffffffffffffffffffffff191610158015610a585750607a60f81b817effffffffffffffffffffffffffffffffffffffffffffffffffffffffffffff191611155b15610a635750610b09565b603060f81b817effffffffffffffffffffffffffffffffffffffffffffffffffffffffffffff191610158015610abf5750603960f81b817effffffffffffffffffffffffffffffffffffffffffffffffffffffffffffff191611155b15610aca5750610b09565b602d60f81b817effffffffffffffffffffffffffffffffffffffffffffffffffffffffffffff191603610afd5750610b09565b60009350505050610b23565b8080610b14906111bb565b9150506109d1565b5060019150505b92915050565b600080fd5b600080fd5b600067ffffffffffffffff82169050919050565b610b5081610b33565b8114610b5b57600080fd5b50565b600081359050610b6d81610b47565b92915050565b600060208284031215610b8957610b88610b29565b5b6000610b9784828501610b5e565b91505092915050565b600073ffffffffffffffffffffffffffffffffffffffff82169050919050565b6000610bcb82610ba0565b9050919050565b610bdb81610bc0565b8114610be657600080fd5b50565b600081359050610bf881610bd2565b92915050565b600060208284031215610c1457610c13610b29565b5b6000610c2284828501610be9565b91505092915050565b600063ffffffff82169050919050565b610c4481610c2b565b82525050565b6000602082019050610c5f6000830184610c3b565b92915050565b610c6e81610bc0565b82525050565b6000602082019050610c896000830184610c65565b92915050565b610c9881610b33565b82525050565b6000602082019050610cb36000830184610c8f565b92915050565b600080fd5b600080fd5b600080fd5b60008083601f840112610cde57610cdd610cb9565b5b8235905067ffffffffffffffff811115610cfb57610cfa610cbe565b5b602083019150836001820283011115610d1757610d16610cc3565b5b9250929050565b600080600060408486031215610d3757610d36610b29565b5b600084013567ffffffffffffffff811115610d5557610d54610b2e565b5b610d6186828701610cc8565b93509350506020610d7486828701610be9565b9150509250925092565b6000819050919050565b610d9181610d7e565b82525050565b6000602082019050610dac6000830184610d88565b92915050565b6000819050919050565b6000610dd7610dd2610dcd84610ba0565b610db2565b610ba0565b9050919050565b6000610de982610dbc565b9050919050565b6000610dfb82610dde565b9050919050565b610e0b81610df0565b82525050565b6000602082019050610e266000830184610e02565b92915050565b60008060208385031215610e4357610e42610b29565b5b600083013567ffffffffffffffff811115610e6157610e60610b2e565b5b610e6d85828601610cc8565b92509250509250929050565b6000604082019050610e8e6000830185610c8f565b610e9b6020830184610c8f565b9392505050565b600082825260208201905092915050565b82818337600083830152505050565b6000601f19601f8301169050919050565b6000610edf8385610ea2565b9350610eec838584610eb3565b610ef583610ec2565b840190509392505050565b6000819050919050565b6000610f25610f20610f1b84610f00565b610db2565b610b33565b9050919050565b610f3581610f0a565b82525050565b600060e082019050610f50600083018b610d88565b8181036020830152610f6381898b610ed3565b9050610f726040830188610c65565b610f7f6060830187610c65565b610f8c6080830186610f2c565b610f9960a0830185610c3b565b610fa660c0830184610c8f565b9998505050505050505050565b610fbc81610d7e565b8114610fc757600080fd5b50565b600081519050610fd981610fb3565b92915050565b600060208284031215610ff557610ff4610b29565b5b600061100384828501610fca565b91505092915050565b600081905092915050565b6000611023838561100c565b9350611030838584610eb3565b82840190509392505050565b7f2e636173686261636b69642e6574680000000000000000000000000000000000600082015250565b6000611072600f8361100c565b915061107d8261103c565b600f82019050919050565b6000611095828486611017565b91506110a082611065565b91508190509392505050565b600081519050919050565b60005b838110156110d55780820151818401526020810190506110ba565b60008484015250505050565b60006110ec826110ac565b6110f68185610ea2565b93506111068185602086016110b7565b61110f81610ec2565b840191505092915050565b60006040820190508181036000830152611135818587610ed3565b9050818103602083015261114981846110e1565b9050949350505050565b7f4e487b7100000000000000000000000000000000000000000000000000000000600052603260045260246000fd5b7f4e487b7100000000000000000000000000000000000000000000000000000000600052601160045260246000fd5b6000819050919050565b60006111c6826111b1565b91507fffffffffffffffffffffffffffffffffffffffffffffffffffffffffffffffff82036111f8576111f7611182565b5b60018201905091905056fea2646970667358221220b9e7bad566358b7a61a90baaac46933bd8cd3520fc5bfb07068ad30c6bc27bb164736f6c63430008130033","linkReferences":{}},"methodIdentifiers":{"SUBNAME_FUSES()":"20ad89d1","defaultExpiry()":"8cfb3088","defaultResolver()":"828eab0e","nameWrapper()":"a8e5fbc0","owner()":"8da5cb5b","parentNode()":"f3068a00","register(string)":"f2c298be","registerFor(string,address)":"90e225ea","setDefaultExpiry(uint64)":"07ecb833","setOwner(address)":"13af4035"},"id":0}